:020000040800F2
:1000000000200020A90400089303000895030008BD
:1000100097030008990300089B03000800000000F4
:100020000000000000000000000000009D03000828
:100030009F03000800000000A1030008A3030008BC
:10004000C5040008C9040008CD040008D104000854
:10005000D5040008D9040008DD040008E104000804
:10006000E5040008E9040008ED040008F1040008B4
:10007000F5040008F9040008FD0400080105000863
:1000800005050008090500080D0500081105000810
:1000900015050008190500081D05000821050008C0
:1000A00025050008290500082D0500083105000870
:1000B00035050008390500083D0500084105000820
:1000C00045050008490500084D05000851050008D0
:1000D00055050008590500085D0500086105000880
:1000E00065050008690500086D0500087105000830
:1000F00075050008790500087D05000881050008E0
:10010000000000000000000000000000850500085D
:10011000890500088D05000891050008950500086F
:10012000990500089D050008A1050008A50500081F
:10013000A9050008AD05000800000000000000004F
:10014000B1050008B5050008B90500080000000069
:10015000000000000000000000000000000000009F
:100160000000000000000000BD050008C1050008F7
:10017000C5050008000000000000000000000000AD
:1001800000000000C905000880B54D48006850F423
:1001900070004B4908604B48006850F00100494925
:1001A000086049480168494801404748016045489E
:1001B000016847480140434801604248006830F404
:1001C0008020404908604048006830F4FE003E4905
:1001D000086040480068000900013E4908603E4848
:1001E00001683E4801403C48016000203C490860ED
:1001F00000F005F85FF000603A49086001BD82B088
:1002000000200190002000902E48006850F48030BB
:100210002C4908602B48006810F4003000900198C9
:10022000401C01900098002803D10198B0F5A04F20
:10023000F0D124480068800302D50120009001E03D
:10024000002000900098012838D11220264908602B
:100250001D4800681C4908601B4800681A4908606E
:100260001948006850F48060174908601648006813
:1002700030F47C10144908601348006850F4E8100A
:10028000114908600F48006850F080700D490860FF
:100290000C4800688001FBD50B480068800880008E
:1002A000094908600848006850F0020006490860E3
:1002B0000548006810F00C000828F9D102B070471A
:1002C00088ED00E000100240041002400CC07FF8EE
:1002D000FFFFF6FE2C10024030100240CCFC00FF65
:1002E0000810024008ED00E00020024030B4002376
:1002F000002200240024002344E001229A400C68DC
:10030000144094423DD10A79012A02D00A79022A86
:1003100019D1846803251A00D2B252009540AC432B
:10032000846084684D791A00D2B2520095402C4303
:100330008460828801249C40A243828082888C79D8
:100340009C4022438280046803251A00D2B25200E6
:100350009540AC43046004680D791A00D2B2520093
:1003600095402C430460C46803251A00D2B25200A1
:100370009540AC43CD791A00D2B2520095402C433F
:10038000C4605B1C102BB8D330BC704789B281614C
:1003900070477047FEE7FEE7FEE7FEE770477047ED
:1003A0007047704780B501215FF4FC0000F01EF833
:1003B00001BD00B583B00820009001208DF8040035
:1003C00003208DF8050000208DF8060000208DF830
:1003D000070069460148FFF789FF07BD0004004890
:1003E00080B5FFF7DFFFFFF7E4FF01BDC9B20029C9
:1003F00005D00649096808430449086005E0034937
:10040000096831EA00000149086070471410024091
:100410000100481E0029FBD1704780B5FFF7E0FFBF
:1004200001BD80B5FFF7F9FF08210448FFF7AEFFD3
:100430005FF47410FFF7ECFFF6E7000000040048DB
:100440004EF68851CEF20001086840F47000086052
:10045000BFF34F8FBFF36F8F4FF00070E1EE100AC4
:100460007047000000F00BF8002801D0AFF30080C7
:100470000020AFF30080FFF7D4FF00F002F8012066
:10048000704700F001B800000746384600F002F857
:10049000FBE7000080B5AFF30080024A110018208E
:1004A000ABBEFBE726000200014880470148004739
:1004B00089010008B9040008AFF30080FFF7C0FF0E
:1004C000FFF7D0FFFFF7FEBFFFF7FEBFFFF7FEBF4E
:1004D000FFF7FEBFFFF7FEBFFFF7FEBFFFF7FEBF50
:1004E000FFF7FEBFFFF7FEBFFFF7FEBFFFF7FEBF40
:1004F000FFF7FEBFFFF7FEBFFFF7FEBFFFF7FEBF30
:10050000FFF7FEBFFFF7FEBFFFF7FEBFFFF7FEBF1F
:10051000FFF7FEBFFFF7FEBFFFF7FEBFFFF7FEBF0F
:10052000FFF7FEBFFFF7FEBFFFF7FEBFFFF7FEBFFF
:10053000FFF7FEBFFFF7FEBFFFF7FEBFFFF7FEBFEF
:10054000FFF7FEBFFFF7FEBFFFF7FEBFFFF7FEBFDF
:10055000FFF7FEBFFFF7FEBFFFF7FEBFFFF7FEBFCF
:10056000FFF7FEBFFFF7FEBFFFF7FEBFFFF7FEBFBF
:10057000FFF7FEBFFFF7FEBFFFF7FEBFFFF7FEBFAF
:10058000FFF7FEBFFFF7FEBFFFF7FEBFFFF7FEBF9F
:10059000FFF7FEBFFFF7FEBFFFF7FEBFFFF7FEBF8F
:1005A000FFF7FEBFFFF7FEBFFFF7FEBFFFF7FEBF7F
:1005B000FFF7FEBFFFF7FEBFFFF7FEBFFFF7FEBF6F
:0C05C000FFF7FEBFFFF7FEBFFFF7FEBF16
:04000005080004B932
:00000001FF
